:020000040800F2
:1000000000000220CD2D00081D2E00081D2E000826
:100010001D2E00081D2E00081D2E000800000000E7
:100020000000000000000000000000001D2E00087D
:100030001D2E0008000000001D2E00080F280008DB
:100040001D2E00081D2E00081D2E00081D2E000864
:100050001D2E00081D2E0008412C0008472C00080A
:100060004D2C0008532C0008592C00081D2E0008A8
:100070001D2E00081D2E00081D2E00081D2E000834
:100080001D2E00081D2E00081D2E00080000000077
:100090000000000000000000000000005F2C0008CD
:1000A0000103000879020008150300089D020008FA
:1000B000B1020008C5020008D90200081D2E000880
:1000C0001D2E00081D2E00081D2E00081D2E0008E4
:1000D0001D2E0008C92B0008E12B000800000000BD
:1000E000752C00081D2E0008E539000800000000EE
:1000F0000000000000000000000000001D2E0008AD
:10010000000000001D2E0008ED0200081D2E000852
:1001100000000000000000000000000000000000DF
:100120001D2E00081D2E00081D2E00081D2E000883
:100130001D2E00080000000000000000000000006C
:10014000000000000000000000000000D939000895
:100150001D2E00081D2E00081D2E0008FD2B000876
:100160001D2E00081D2E00080000000000000000E9
:10017000000000000000000000000000000000007F
:10018000000000001D2E000800000000000000001C
:080190001D2E00081D2E0008C1
:1001980053B94AB9002908BF00281CBF4FF0FF31E6
:1001A8004FF0FF3000F00CB8ADF1080C6DE904CE4B
:1001B80004F07CFDDDF804E0DDE9022304B07047BB
:1001C800704700BF10B5054C237833B9044B13B101
:1001D8000448AFF300800123237010BD04020020FF
:1001E800000000008C4F000808B5034B1BB1034901
:1001F8000348AFF3008008BD00000000080200209B
:100208008C4F00087047704710B50A4C22681318C5
:10021800EFF308818B4206D9074B0C221A604FF086
:10022800FF32104610BD05490548091A8B42F3D222
:100238002360F6E7000000200811002000000220DB
:1002480000040000FEE70000024B16221A604FF07F
:10025800FF3070470811002001207047836810B5EF
:10026800044613B1032201469847204610BD0000FA
:1002780010B5074C206810B1043001F0CBF9A06923
:1002880020B1BDE81040043001F0C4B910BD00BF72
:1002980020020020034B186810B1043001F0BAB9ED
:1002A800704700BF20020020034B586810B104308B
:1002B80001F0B0B9704700BF20020020034B9868D6
:1002C80010B1043001F0A6B9704700BF2002002029
:1002D800034BD86810B1043001F09CB9704700BFD7
:1002E80020020020034B186910B1043001F092B9C4
:1002F800704700BF20020020034B586910B104303A
:1003080001F088B9704700BF20020020034BD8696C
:1003180010B1043001F07EB9704700BF2002002000
:10032800826810B50AB904F029FEBDE81040C36818
:10033800184708B500B9FEE702F09CFB0068836E19
:1003480013B16030FFF7ECFF08BDFFF7F2BF10B53F
:1003580000B9FEE7037F013B072B10D8DFE803F065
:1003680014040F100F0F0F12022402F083FB006811
:10037800063400EB041083680BB1FFF7D1FF10BD02
:100388000324F2E70424F0E70124EEE7FFF7DFBFD8
:10039800FFF7DDBF7047000038B50E4A0E4B054623
:1003A80018784FF47A73B3FBF0F31068B0FBF3F0EE
:1003B80000F0BCF8044658B90F2D09D80246294662
:1003C8004FF0FF3000F05EF8044B20461D6038BD4A
:1003D8000120FCE714000020040000200800002091
:1003E80008B50B4B1A6842F400721A601A6842F496
:1003F80080621A601A6842F480721A60032000F062
:100408002FF80020FFF7C8FFFFF7C4FF002008BD42
:10041800003C0240034A044B11681B780B441360EC
:10042800704700BF4002002004000020014B1868FC
:10043800704700BF4002002038B50446FFF7F6FFBA
:10044800631C1CBF054B1B78054618BFE418FFF753
:10045800EDFF431BA342FAD338BD00BF04000020C0
:100468000749CA6822F4E0620302120403F4E06355
:10047800120C134343F0BF6343F40033CB6070475F
:1004880000ED00E0164B30B5DC68C4F30224C4F17B
:100498000705231D042D28BF0425062B4FF0FF3325
:1004A8008CBF033C002403FA05F521EA0501A340AB
:1004B80022EA0302A140002841EA0203ACBF00F18E
:1004C8006040084A4FEA0313B8BF00F00F00DBB2E0
:1004D800AABF00F56140135480F8003330BD00BF57
:1004E80000ED00E014ED00E0002808DB01234209DC
:1004F80000F01F0003FA00F0014B43F82200704798
:1005080000E100E000280DDB4309012200F01F0094
:1005180002FA00F02033044A42F82300BFF34F8F59
:10052800BFF36F8F704700BF00E100E00138B0F102
:10053800807F0BD24FF0E023054A5861F02182F802
:1005480023100020072298611A6170470120704724
:1005580000ED00E0002809DB4309012200F01F003C
:1005680002FA00F06033024A42F82300704700BFE5
:1005780000E100E0704708B5FFF7FCFF08BD7047D1
:1005880010B5044650B1437903F0FF0213B9027164
:10059800FFF7F5FF01236371002010BD0120FCE780
:1005A80070B50446866DFFF741FF94F83530022B8D
:1005B800054606D080236365002384F83430012083
:1005C80070BD23681A6822F016021A605A6922F070
:1005D80080025A61226C0AB9A26C1AB11A6822F018
:1005E80008021A601A6822F001021A6023681B6860
:1005F80013F001030AD1E16D3F228A40B260012263
:1006080084F8352084F834301846D9E7FFF70EFF10
:10061800401B0528EAD9202363650320002384F8BA
:10062800350084F83430CBE790F83530022B03D00E
:1006380080234365012070470268052380F8353020
:10064800136823F00103136000207047044A5169BE
:10065800014208B502D0506102F0D8FA08BD00BFC7
:10066800003C0140F0B504468BB060B390F8BD344F
:10067800056803F0FF021BB980F8BC2403F0F2F808
:10068800032384F8BD34EB6B254613F4807355F8C7
:10069800100B08BF236101F0A3FB0FCD6E460FC6F8
:1006A8000FCD0FC695E8030086E803002546271DF1
:1006B80097E80E0055F8100B01F0DCFA064620B159
:1006C800022384F8BD3401254EE00146206801F07C
:1006D8008DFB3046D4F804C024264FF0010E0146A5
:1006E800C2B2944500F101001CD800232426194603
:1006F800D8B2844503F1010322D80FCD6E460FC648
:100708000FCD0FC695E8030086E8030097E80E00B2
:10071800206801F0EDFB01230546F0B1022284F8C0
:10072800BD24D0E706FB0243C3E9121183F83DE07C
:1007380083F83C20A3F8442083F840105965CFE79C
:1007480006FB0042C2E9A21182F87D1282F87C02FF
:1007580082F88012C2F89412CAE784F83800206838
:1007680084F8BD3401F06CFF28460BB0F0BD10B51D
:100778000446006894F8BC34012B15D0012384F892
:10078800BC34A36A012B06D1A369012B1EBF836B5E
:1007980043F48033836301F01DFB206801F042FFBE
:1007A800002084F8BC0410BD0220FCE710B590F8C6
:1007B800BC24012A04460BD0012280F8BC2480F80E
:1007C8003810006801F01EFF002084F8BC0410BD3A
:1007D8000220FCE770B501F00F0606EBC60411F025
:1007E800800F05464FEA84044FF024001FD000FB19
:1007F800065004F13C010124294480F83D40CA60B8
:100808004A780E700B7102B10E81022B04BF0023CF
:100818004B7195F8BC34012B12D00123286885F858
:10082800BC3401F028FC002085F8BC0470BD00FB36
:10083800065004F51F710024294480F87D42DEE744
:100848000220F3E710B5044601F00F0000EBC003E7
:1008580011F0800F4FEA83034FF0240216D002FBF9
:10086800004203F13C010123214482F83D30087025
:1008780094F8BC34012B12D00123206884F8BC34CE
:1008880001F038FC002084F8BC0410BD02FB0042D3
:1008980003F51F710023214482F87D32E7E7022027
:1008A800F3E738B501F00F05242404FB050104FB28
:1008B800050401F51F71C4F894320023C4F88C2292
:1008C800C4F89C3284F87D3284F87C52036900684D
:1008D800012B08BFC4F89022DAB21DB901F060FC00
:1008E800002038BD01F02EFDFAE701F00F012423A6
:1008F80003FB0100D0F89C02704738B501F00F05E2
:10090800242404FB050104FB05043C316365002332
:10091800E3650123E26484F83D3084F83C500369C0
:100928000068012B08BF2265DAB21DB901F038FC56
:10093800002038BD01F006FDFAE738B5436801F03C
:100948000F059D4204462CD811F0800F4FF024006B
:100958001ED000FB054200FB054101233C3182F813
:100968003D3001238B700D7094F8BC249A421AD044
:10097800206884F8BC3401F0F1FD2DB9217C206891
:1009880004F2C44201F0AEFE002084F8BC0438BD75
:1009980000FB01431A4603F51F71002382F87D32DC
:1009A800DFE70120F3E70220F1E738B5436801F0FB
:1009B8000F029A4204462AD802EBC20311F0800FB4
:1009C8004FEA83034FF0240018D000FB024003F1E4
:1009D8003C010123214480F83D3000258D700A70C8
:1009E80094F8BC34012B14D00123206884F8BC345B
:1009F80001F0DFFD84F8BC54284638BD00FB0240F6
:100A080003F51F710023214480F87D32E5E70120BA
:100A1800F3E70220F1E701F00F0303EBC3030A0633
:100A28004FEA83034CBF03F13C0103F51F710144F6
:100A3800006801F031BC00002DE9F04F066889B06C
:100A48000446304601F039FE0390002840F05681F4
:100A5800206801F003FE002800F05081D6F808381D
:100A68002068C3F30D23C4F8FC3401F0F7FD8107B7
:100A780048BF2268206842BF536903F002035361EC
:100A880001F0ECFDC20606F500652CD522689369D5
:100A980023F010039361D6F82080C8F34343022B58
:100AA80008F00F0740F02D8147F6F07318EA030F9E
:100AB80014D0242303FB0747C8F30A19D7F88C126C
:100AC8004A46304601F02AFDD7F88C324B44C7F825
:100AD8008C32D7F89C324B44C7F89C322268936911
:100AE80043F010039361206801F0B8FD030300F19F
:100AF8001A81206801F0B2FD47030CD5206801F087
:100B0800B9FD2746049006F5106A4FF00009049BCA
:100B1800002B40F0D081206801F0A0FD002813DAF6
:100B28006B6823F001036B6094F8F434012B40F0F8
:100B38006B82002184F8F414204600F0E7FA22685A
:100B4800536903F000435361206801F087FD0105F4
:100B58000AD5AB68DA0702D5204602F0F7FE22680C
:100B6800536903F400635361206801F077FDC304FF
:100B780033D56B68206823F001036B60102101F006
:100B880065F906F510634FF67F3162680398824273
:100B980000F24282EB6943F00113EB61236B002BF7
:100BA80000F05282D5F8843043F00B03C5F8843046
:100BB8006B6C43F00B036B64D6F80038217C20681B
:100BC80023F4FE63C6F8003804F2C44201F08AFD3B
:100BD8002268536903F480535361206801F03EFD95
:100BE800870416D5206801F06CFD206801F038FAFA
:100BF800E060276800F006FD227B0146384601F0D8
:100C080079F8204602F095FE2268536903F40053F0
:100C18005361206801F022FD000707D5204602F045
:100C280084FE2268536903F008035361206801F0C9
:100C380015FD010600F11382206801F00FFDC202C4
:100C48000CD5A04606F5126901276368BB4200F27D
:100C58001F822268536903F480135361206801F0EE
:100C6800FDFC83022DD5D4F804E0234606F5326056
:100C780001218E4520D993F8A4C20268BCF1010F66
:100C880040F01C82002A80F21982D4F8FC7402F425
:100C9800803207F00107BA4240F0108283F8A3C2FD
:100CA800B26942F08002B2617269170600F10682E9
:100CB8006B6843F400736B602268536903F4001394
:100CC8005361206801F0CAFC410007D5204602F0B4
:100CD80077FE2268536903F080435361206801F06E
:100CE800BDFC42070AD523685D686B0702D520461C
:100CF80002F06AFE226853682B43536009B0BDE8CE
:100D0800F08F062B7FF4EAAE082204F2C441304685
:100D180001F004FC242303FB0747C8F30A18D7F89B
:100D28009C324344D8E6206801F09CFC06F5306804
:100D38000490A2460027049B002B3FF4DAAE049BE4
:100D4800D80776D55FFA87FB2068594601F09AFCE8
:100D580010F0010F81461CD0206821690123C8F8D2
:100D6800083000F5306303EB47130129D0F840C081
:100D78009A6840F08B80110707D5A5498C4508D99A
:100D8800100406D54FF4004202E091065AD52022FD
:100D98009A6019F0080F21D00823C8F80830236892
:100DA8009B481A6C03F5306303EB4713824299683A
:100DB80004D9090444BF4FF40041996020460592C4
:100DC80002F09CFD924B059A9A4207D921690129A4
:100DD80004D1206804F2C44201F084FC19F0100F19
:100DE8001CBF1023C8F8083019F0020F14D073691B
:100DF8001B0642BF6B6843F480636B609AF87F32CE
:100E0800012B06D100238AF87F325946204602F08A
:100E1800CFFD0223C8F8083019F0200F1CBF20238B
:100E2800C8F8083019F4005F1CBF4FF40053C8F825
:100E38000830049B5B080137049308F120080AF185
:100E4800240A78E712F0280FA3D171498C4501D9FB
:100E5800120497D41A69DAF89832C2F312029B1A6C
:100E6800CAF89C326FB9D4F894222AB904F2C44261
:100E7800012101F037FC04E0D4F88C221344C4F8B3
:100E88008C325946204602F03FFD82E761498C4585
:100E980007D111043FF576AF9006F2D520229A606B
:100EA800EFE7002FEDD1D4F89432002BE9D104F20A
:100EB800C4423946DDE7049BD80740F19C805FFABD
:100EC80089FB2068594601F0E6FB10F0010F8046C7
:100ED80020D001216B6B09F00F0201FA02F223EA1C
:100EE80002036B630B46CAF80810216999420DD1B9
:100EF800D7E912231344FB64B9F1000F06D1636DDF
:100F080023B9206804F2C44201F0ECFB594620469C
:100F180002F003FD18F0080F1CBF0823CAF80830B8
:100F280018F0100F1CBF1023CAF8083018F0400F33
:100F38001CBF4023CAF8083018F0020F12D04946E7
:100F4800304600F083FF97F83F30012B07D14FF070
:100F5800000387F83F305946204602F02DFD022352
:100F6800CAF8083018F0800F45D0FA6D7B6D9A42A8
:100F780041D89B1ABA6C21680591934228BF134641
:100F880003339B08069301F5106303EB491307939A
:100F9800079B06989969FA6D7B6D89B2814228D3BF
:100FA8009A420CD3059B09F00F01D3F8342801208D
:100FB80000FA01F122EA0102C3F834281BE0A3EB8E
:100FC8000208BB6C0598984528BF984608F10303AA
:100FD8009B080693237C0093F96C1FFA88F35A4602
:100FE80001F09CF9FB6C4344FB64FB6D4344FB65D7
:100FF800CEE79A42D6D2049B5B0809F10109049313
:1010080024370AF1200A82E5204602F0B7FC96E56B
:101018000A30544F0A31544F99601A6822F400126A
:101028001A60C3F80812D3F8002222F40012C3F899
:101038000022D3F8002242F00062C3F80022039A8B
:10104800013203922033A0E56B6943F4005343F067
:101058002B036B612B6943F00B032B61ACE5B36980
:1010680023F08003B361012704F27F284FF024099D
:101078006368BB427FF6E0AD09FB07F318F803305D
:10108800012B03D1F9B22046FFF7C5FC0137EFE782
:1010980098F86430D9F80020012B09D1002A07DA22
:1010A80067F07F0188F86330C9B22046FFF7B3FCC8
:1010B800013708F1240809F12009C6E50131243374
:1010C8002030D6E5006870B51204446A19B9224385
:1010D8008262002070BD836A4D1E04EB1344002316
:1010E8005E1CDBB29D4205D83F3100EB81002243F4
:1010F8004260EEE7403300EB83035B6804EB134484
:101108003346EDE7036800205962704770470000D6
:101118002DE9F341044640B30368DD0710D4236882
:1011280098075ED423681A0700F1A08023685B073C
:1011380000F1C080A069002840F0288100202BE041
:101148008F4B9A6802F00C02042A07D09A6802F0C2
:101158000C02082A0BD15A68510208D5884B1B6823
:101168009A03DCD56368002BD9D1012014E06268AA
:10117800B2F5803F13D11A6842F480321A60FFF743
:1011880055F97F4E054633689B03C8D4FFF74EF9DF
:10119800401B6428F7D9032002B0BDE8F081784DE0
:1011A800B2F5A02F2B6807D143F480232B602B685E
:1011B80043F480332B60E2E723F480332B602B6801
:1011C80023F480232B60002AD9D1FFF72FF9064694
:1011D8002B689F03A3D5FFF729F9801B6428F7D94B
:1011E800D9E7674B9A6812F00C0F07D09A6802F09B
:1011F8000C02082A11D15B685E020ED4604A13689B
:101208009D0702D5E368012BAFD11368216923F04C
:10121800F80343EAC103136084E7E268594BB2B1AB
:1012280001221A60FFF702F9554D06462B68980708
:1012380007D52B68226923F0F80343EAC2032B6021
:1012480070E7FFF7F3F8801B0228EFD9A3E71A60CD
:10125800FFF7ECF84A4E0546336899077FF562AF09
:10126800FFF7E4F8401B0228F6D994E76269454B7A
:1012780082B10122C3F8802EFFF7D8F8404E054608
:10128800736F9F073FF552AFFFF7D0F8401B022856
:10129800F6D980E7C3F8802EFFF7C8F8384E054620
:1012A800736F98077FF542AFFFF7C0F8401B02281D
:1012B800F6D970E7324B1A6C12F0805228D101929D
:1012C8001A6C42F080521A641B6C03F0805301932D
:1012D800019B01272C4D2B68D9051BD5A368284DE8
:1012E800012B27D12B6F43F001032B67FFF79EF8E3
:1012F800234E054641F28838336F9B0739D5002FB6
:101308003FF418AF1E4A136C23F08053136411E79F
:101318000027DFE72B6843F480732B60FFF786F81C
:1013280006462B68DA05D9D4FFF780F8801B022817
:10133800F7D930E7052B04D12B6F43F004032B6753
:10134800D0E72A6F22F001022A672A6F22F00402EE
:101358002A67002BCAD1FFF769F841F28838064698
:101368002B6F9807CBD5FFF761F8801B4045F7D95D
:1013780011E7FFF75BF8401B4045BDD90BE700BFFD
:10138800003802400000474200700040364DAB680C
:1013980003F00C03082B3DD0344B002202281A66B8
:1013A8002BD1FFF743F806462B6899011FD4D4E9DF
:1013B80007321343626A43EA8213E26A43EA02632A
:1013C800A26A5208013A43EA02436B60274B264D52
:1013D80001221A66FFF72AF804462B689A013FF59E
:1013E800ADAEFFF723F8001B0228F6D9D3E6FFF7C6
:1013F8001DF8801B0228D7D9CDE6FFF717F8044659
:101408002B689B017FF59AAEFFF710F8001B0228A6
:10141800F6D9C0E601283FF4BFAE6B68E26903F471
:10142800800191427FF4A1AE216A03F03F028A4213
:101438007FF49BAE616A47F6C0721A40B2EB811F17
:101448007FF493AEA26A520803F44031013AB1EB3B
:10145800024F7FF48AAEE26A03F07063B3EB026F67
:101468003FF46CAE81E600BF0038024000004742FE
:10147800134908B58B6803F00C03042B1CD0082B08
:101488001CD14A684B68496813F4800314BF0D489F
:101498000D48C1F3881118BF002302F03F02A1FBD9
:1014A8000001FEF775FE064B5B68C3F30143013389
:1014B8005B00B0FBF3F008BD0248FCE70248FAE71E
:1014C8000038024000127A000024F4002DE9F041AF
:1014D8000D46044610B90120BDE8F081444B1A6856
:1014E80002F007028A4228D3226897072DD4D00732
:1014F80041D43F4B1A6802F00702AA4266D8226814
:1015080051076CD4130707D53A4A2169936823F425
:10151800604343EAC1039360FFF7AAFF354B364A9D
:101528009B68C3F30313D35CD840344B1860344B27
:101538001868FEF731FF0020CEE7CAB21A701B68A0
:1015480003F007038B42C6D1CEE72A4B12F0040FF3
:101558001EBF996841F4E0519960160742BF996827
:1015680041F4604199602349A0688B6823F0F00337
:1015780003438B60BBE762681E4B012A1CD11B68C2
:1015880013F4003FA7D01B4EB36823F003031343A3
:10159800B360FEF74BFF41F288380746B3686268CC
:1015A80003F00C03B3EB820FA3D0FEF73FFFC01B81
:1015B8004045F3D903208FE7911E01291B6802D803
:1015C80013F0007FDEE713F0020FDBE7EAB21A70D0
:1015D8001B6803F00703AB427FF47DAF8FE7054933
:1015E800E0688B6823F4E05303438B608AE700BF0D
:1015F800003C024000380240E44F0008140000207C
:1016080008000020014B1868704700BF1400002034
:101618007047704703681A69910710B504460ED5DC
:10162800DA6892070BD56FF002021A61012202777D
:101638009B699B0777D0FEF7ABFE002323772368CF
:101648001A69500710D5DA6851070DD56FF00402F2
:101658001A61022222779B6913F4407F204668D0E2
:10166800FEF796FE0023237723681A6912070FD521
:10167800DA6810070CD56FF008021A610422227785
:10168800DB69990720465AD0FEF782FE00232377AC
:1016980023681A69D20610D5DA68D0060DD56FF01E
:1016A80010021A6108222277DB6913F4407F204672
:1016B8004BD0FEF76DFE0023237723681A69D10704
:1016C80008D5DA68D20705D56FF001021A612046FD
:1016D800FEF73BFE23681A69100608D5DA6811067A
:1016E80005D56FF080021A61204600F036F82368AD
:1016F8001A69520608D5DA68500605D56FF0400217
:101708001A612046FFF785FF23681A69910622D5DA
:10171800DA6892061FD56FF0200220461A61BDE8EC
:10172800104000F019B8FEF731FE2046FFF770FFB1
:1017380083E7FEF72BFE2046FFF76AFF92E7FEF7E6
:1017480025FE2046FFF764FFA0E7FEF71FFE2046B0
:10175800FFF75EFFAFE710BD70477047026802F100
:101768000C0353E8003F23F490730C3242E8003135
:1017780002680029F2D102F1140353E8003F23F074
:10178800010302F1140C4CE800310029F3D1036B7A
:10179800012B0BD102F10C0353E8003F23F0100397
:1017A80002F10C0C4CE800310029F3D1202380F819
:1017B8003E3000230363704790F83D30202B18D14A
:1017C800A9B1A2B190F83C30012B12D0C2840162B9
:1017D8008284016800232122036480F83C3080F869
:1017E8003D20CA6842F08002CA601846704701204E
:1017F80070470220704708B5806B0023C385C384F7
:1018080001F0A0F908BD704707B58168836A0268CE
:10181800B1F5805F3ED1016900293ED15268C2F31B
:10182800080223F8022B8362C38D013B9BB2C38558
:10183800002B2CD10268D16821F02001D160D16839
:1018480021F48071D160516921F001015161202298
:1018580080F83E20026B012A026828D1036302F156
:101868000C0353E8003F23F0100302F10C0C4CE882
:1018780000310029F3D11368DB0605D501911368FF
:10188800019353680193019B818DFFF7BCFF03B05F
:101898005DF804FB39B9016929B95268D2B21A70E6
:1018A800836A0133BFE7526802F07F02F7E701F06D
:1018B80043F9ECE7036837B51A68D9685D6912F02F
:1018C8000F0F04460CD1950670D58D066ED590F88D
:1018D8003E30222B64D103B0BDE83040FFF794BFFF
:1018E80005F0010001F4907505435FD0D50705D5D3
:1018F800CB0542BF236C43F001032364550704D58D
:1019080018B1236C43F002032364930704D518B17C
:10191800236C43F004032364150707D501F0200363
:1019280003431EBF236C43F008032364236C002B7E
:1019380036D0900608D58A0606D594F83E30222B74
:1019480002D12046FFF760FF23685B69256C03F02E
:10195800400305F008051D43204623D0FFF7FEFE8F
:10196800226853695B0618D502F1140353E8003F57
:1019780023F0400302F1140040E800310029F3D1BC
:10198800A06B50B1724B0365FEF74EFE40B1A06BE1
:10199800036D03B0BDE830401847204601F0D2F887
:1019A80003B030BD01F0CEF82564F9E7206B0128BB
:1019B80040F09180D50640F18E80C80640F18B80BA
:1019C800002201921A6801925A680192019A5A6992
:1019D80055064CD5A16B0A68526892B2002ADFD02E
:1019E800A08D9042DCD9E285CA69B2F5807F36D0F5
:1019F80003F10C0252E8002F22F4807203F10C006C
:101A080040E800210029F3D103F1140252E8002F25
:101A180022F0010203F1140040E800210029F3D16B
:101A280003F1140252E8002F22F0400203F11400DF
:101A380040E800210029F3D1202284F83E202163C8
:101A480003F10C0252E8002F22F0100203F10C00FF
:101A580040E800210029F3D1A06BFEF7A1FDE38D3A
:101A6800A18DC91A89B22046FFF7CDFE98E7E18D0E
:101A78008AB2E18D89B2002992D0A18D891A89B2E2
:101A880000298DD003F10C0252E8002F22F4907245
:101A980003F10C0545E800200028F3D103F11402F6
:101AA80052E8002F22F0010203F1140545E8002056
:101AB8000028F3D1202284F83E20206303F10C0291
:101AC80052E8002F22F0100203F10C0545E800202F
:101AD8000028F3D1C7E7100628D50D0626D594F8B7
:101AE8003D20212A7FF45CAFA168226AB1F5805FAE
:101AF80017D12169A9B932F8021BC1F3080159604D
:101B08002262E28C013A92B2E284002A7FF448AF62
:101B1800DA6822F08002DA60DA6842F04002DA60BD
:101B28003EE7511C216212785A60EAE750067FF5B9
:101B380037AF4A067FF534AFDA6822F04002DA6040
:101B4800202384F83D30204600F0F9FF28E700BF45
:101B5800FF17000890F83C30012B11D002682423AD
:101B680080F83D30D36823F00C0343F00803D360BA
:101B7800202380F83D30002380F83C301846704719
:101B88000220704790F83C30012B11D002682423C2
:101B980080F83D30D36823F00C0343F00403D3608E
:101BA800202380F83D30002380F83C3018467047E9
:101BB8000220704790F83D2090F83E00104370478F
:101BC800C285002382852222036480F83E200269B0
:101BD80080F83C30816203681AB1DA6842F4807296
:101BE800DA605A6942F001025A61DA6842F020026A
:101BF800DA600020704770B490F83E60202E10D153
:101C080061B15AB190F83C40012C0AD0012480F807
:101C18003C400024046370BCFFF7D2BF012070BCB5
:101C280070470220FBE7000082B00023104A0193AE
:101C3800019B01330193019B934216D80369002B42
:101C4800F6DA002301930369094A43F001030361AB
:101C5800019B01330193019B934206D8036913F05A
:101C68000103F5D1184602B070470320FBE700BF17
:101C7800400D030084B038B505AD85E80E000A9B19
:101C8800012B044625D1836B23F480338363C36817
:101C980023F4840323F04003C360C36823F4401390
:101CA800C360119B012B02BFC36843F48013C36058
:101CB800FFF7BAFF089B012B07D1A36843F006037F
:101CC800A360A36843F02003A360BDE8384004B0D4
:101CD8007047C36843F04003C360FFF7A5FF0E9B3E
:101CE80023B9A36B43F48033A363E3E7A36B23F423
:101CF8008033F9E7022A4AD1274B284A0B449342FA
:101D080039D9274B274A0B44934236D9264AA1F59D
:101D18007403A3F51053934231D9244AA1F1837374
:101D2800A3F5E74393422CD3214B224A0B44934219
:101D380029D9214B214A0B44934226D3204B214ACF
:101D48000B44934223D3204AA1F1B773A3F5585308
:101D580093421ED31D4B1E4A0B44934234BF0723A4
:101D68000623C26822F47052C260C26842EA832322
:101D7800C360002070470F23F3E70E23F1E70D231C
:101D8800EFE70C23EDE70B23EBE70A23E9E7092349
:101D9800E7E70823E5E700BF405327FFFF340C00BF
:101DA800401E1BFF3F420F007F4F120020D613003A
:101DB80060B6E5FE5FE3160000D3CEFE40771B0059
:101DC800C05BB3FEC091210020753800E05459FE75
:101DD800E09C4100836843F0010383600020704762
:101DE800836823F0010383600020704738B5C36817
:101DF800012923F0C0430546C36010D1C36843F0EE
:101E08000053C36000240120FEF716FB6B69D90755
:101E180004F1010415D4322CF5D1012038BD002974
:101E2800FBD1C36843F08043C3600C460120FEF732
:101E380003FB6B69DA0704F1010402D5322CF5D1F2
:101E4800EBE7A4F1320358425841E7E782B0002398
:101E5800104A0193019B01330193019B934216D8C9
:101E68000369002BF6DA8901002341F02001094AB1
:101E780001930161019B01330193019B934206D8B1
:101E8800036913F02003F5D1184602B07047032008
:101E9800FBE700BF400D030082B000230F4A019307
:101EA800019B01330193019B934214D80369002BD2
:101EB800F6DA00230193094A10230361019B0133D9
:101EC8000193019B934206D8036913F01003F5D1DF
:101ED800184602B070470320FBE700BF400D03001F
:101EE800D0F800381943C0F80018002070470000E7
:101EF80084B02DE9F843044609A880E80E00139D34
:101F080000230E46194603F1400204EB8202013316
:101F18000F2B5160F7D104F50067002D6CD17B6859
:101F280043F002037B60A36B43F40013A363A36B2A
:101F380023F40023A363A36B23F48023A363002368
:101F4800C4F8003ED4F80038C4F800380E9B012BC2
:101F58005CD10B99002957D12046FFF7C1FF10210A
:101F68002046FFF773FF01462046FFF795FF084319
:101F7800C0B2002300383B6118BF01207B6104F523
:101F88001062FB6119464FF0904C4FF0006E4FF60F
:101F98007F38B3423CD1002204F5306311464FF03C
:101FA800904C4FF0006E4FF67F38B24243D13B69F8
:101FB80023F480733B610023A3616FF08043636166
:101FC8000C9B1BB9A36943F01003A361A269234BBF
:101FD8001343A3610F9B1BB1A36943F00803A361DB
:101FE800012D01BFA36943F0804343F00403A361BB
:101FF800BDE8F84304B07047A36B23F40013A36350
:10200800A36B43F4002399E71946A5E70321A3E747
:10201800D2F80090B9F1000F0BDA3BB9C2F800E032
:1020280011610133C2F808802032B2E7C2F800C05B
:10203800F6E71160F4E7D3F80090B9F1000F0BDA76
:102048003AB9C3F800E019610132C3F808802033B7
:10205800ABE7C3F800C0F6E71960F4E700383C8046
:10206800D0F8083813F0060004D013F0020F14BF9C
:1020780002200F20704730B50D78012405F00F03BA
:102088009C404B7800F50062012B00EB4510D369AA
:1020980018D11C43D461D0F800391A0410D4CA6886
:1020A800D0F80049C2F30A030A79234343EA82437A
:1020B80043EA855343F0805343F40043C0F80039A2
:1020C800002030BD43EA0444D461D0F8003B1B042F
:1020D800F6D4CB68D0F8002BC3F30A0313430A796C
:1020E80043EA824343F0805343F40043C0F8003B83
:1020F800E6E7000010B50A784978012900EB421399
:1021080000F5006002F00F0222D1D3F8001900296F
:102118000BDAD3F8001941F00061C3F80019D3F8BD
:10212800001941F08041C3F80019C46B012101FA7C
:1021380002F224EA0204C463C16921EA0202C2610C
:10214800D3F80019144A0A40C3F80029002010BD2A
:10215800D3F8001B00290BDAD3F8001B41F000610B
:10216800C3F8001BD3F8001B41F08041C3F8001BE3
:10217800C46B4FF4803101FA02F224EA0204C4630A
:10218800C16921EA0202C261D3F8001B034A0A406E
:10219800C3F8002BDAE700BF007833EC0078F3EFE0
:1021A8004B78DFF8F0C0F0B50E788D69384F012B09
:1021B80000EB461446D104F51063BDB91D692F40E4
:1021C8001F611D6945F400251D611D6905EA0C059F
:1021D800012A1D6123D14A6902B15A61D4F8003934
:1021E80043F00443C4F800390020F0BDD3F810E0F0
:1021F8000EEA0C0CC3F810C0D3F810C00CEA07079D
:102208001F61CF68AF421D6938BF8F6145F4002553
:102218001D618D691F69C5F312053D43D8E7D4F8E0
:10222800003943F00443C4F800398B69002BDBD034
:10223800D0F8342806F00F060123B3401343C0F842
:102248003438D1E7D4F8100B00EA0C00C4F8100BAE
:10225800D4F8100B384004F530631861C86805B12C
:1022680088611D69C86145F400251D611D69C0F3B9
:1022780012002843012A186102D10A6902B15A6181
:10228800D4F8003B43F00443C4F8003BACE700BF7C
:10229800FFFF07E00000F8FF82B000234A780193AF
:1022A8000B78012A4FEA43131ED100F51060C118BC
:1022B800C258002A02DB002002B07047C25842F020
:1022C8000062C250C25842F08042C25042F21072BC
:1022D800019B01330193019B934201D90120EBE754
:1022E8000B68002BF4DBE6E700F53060C118C25834
:1022F800002AE0DAC25842F00062C250C25842F0E6
:102308008042C25042F21072019B01330193019B3B
:102318009342E3D80B68002BF6DBCCE710B59DF8A9
:10232800084044B9033301329B0800EB023001EB4B
:1023380083038B4201D1002010BD51F8042B0260A9
:10234800F7E700002DE9F3414D780F788B690E7996
:10235800DFF8BCC1DFF8BCE1012D00EB471440F009
:102368008E8004F51065D5F810806BBB08EA0C0C5C
:10237800C5F810C0D5F810C04CF4002CC5F810C032
:10238800D5F810C00CEA0E0EC5F810E0012A4ED19F
:102398004B6903B16B61012E0CD1D0F8083813F4E6
:1023A800807FD4F800390CBF43F0005343F08053CA
:1023B800C4F80039D4F8003943F00443C4F80039AC
:1023C800002002B0BDE8F08108EA0E0EC5F810E062
:1023D800D5F810E00EEA0C0CD1F80CE0C5F810C0E6
:1023E8000EEB030C0CF1FF3CBCFBFEFEDFF828C132
:1023F800D5F810800CEACE4C4CEA080CC5F810C091
:10240800D5F810E0C3F3120C4CEA0E0C012EC5F8F7
:1024180010C0BBD1D5F810C02CF0C04CC5F810C006
:10242800D5F810C04CF0005CC5F810C0AEE7D4F881
:102438000059012E45F00445C4F800590BD0002B73
:10244800BED0D0F8343807F00F02012797401F4359
:10245800C0F83478B4E7D0F8085815F4807FD4F879
:1024680000590CBF45F0005545F08055C4F8005997
:10247800009209699BB23A46FFF750FFA0E7D4F8EB
:10248800105B05EA0E05C4F8105BD4F8105B05EA8A
:102498000C0504F530673D61CD681BBB3B69C5F38E
:1024A80012051D433D613B6943F400233B61012A4A
:1024B80002D10B6903B17B61012E0CD1D0F8083829
:1024C80013F4807FD4F8003B0CBF43F0005343F073
:1024D8008053C4F8003BD4F8003B43F00443C4F8ED
:1024E800003B6DE72B44DFF830C0D7F810E0013B24
:1024F800B3FBF5F39BB25D430CEAC34343EA0E0317
:10250800CD613B613B69C5F312051D433D61CEE7D3
:10251800FFFF07E00000F8FF0000F81F034670B552
:102528009008002402F0030203F58055844210D37A
:1025380001EB800062B103F580531C680023D900C9
:1025480024FA01F1C154013399B28A42F7D11044F7
:1025580070BD2E6841F824600134E7E74A780B78AB
:10256800012A00EB431012D1D0F80029002A06DB1B
:102578002BB1D0F8003923F08043C0F80039D0F8E7
:10258800003943F40013C0F8003900207047D0F830
:10259800002B002A06DB2BB1D0F8003B23F0804348
:1025A800C0F8003BD0F8003B43F40013C0F8003BF0
:1025B800EBE70B784A7800EB43100B79012AA3F17B
:1025C8000203DBB20FD1D0F80029012B22F400124C
:1025D800C0F8002905D8D0F8003943F08053C0F876
:1025E800003900207047D0F8002B22F40012012B8C
:1025F800C0F8002B9EBFD0F8003B43F08053C0F8D2
:10260800003BEEE7D0F8003823F4FE63C0F800384A
:10261800D0F80038090101F4FE611943C0F8001828
:1026280000207047D0F8003E23F00303C0F8003EB6
:10263800D0F8043823F00203C0F8043800207047AB
:10264800D0F8003E23F00303C0F8003ED0F8043869
:1026580043F00203C0F804380020704742698069DB
:1026680010407047D0F8183800F50060C06918406D
:10267800000C7047D0F8183800F50060C0691840A1
:1026880080B2704700EB411100F50060D1F8082BCB
:1026980040691040704710B5D0F81048D0F8343869
:1026A80000EB411001F00F01CB4000F51060DB0199
:1026B8008068DBB22343184010BD406900F0010078
:1026C8007047D0F8003923F4FF6323F00703C0F8FC
:1026D8000039D0F8043843F48073C0F80438002077
:1026E8007047000030B5056C104CA54200F530630A
:1026F80003D9D0F8004B002C16DB00241C611C69A0
:1027080044F400241C611C6944F018041C611C6911
:10271800012944F0C0441C6101BF5A61D0F8003B54
:1027280043F08023C0F8003B002030BD0A30544FEE
:1027380086B00023052853D8DFE800F003111E2BCC
:1027480038450093274B28481A6B42F001021A6358
:102758001B6B03F001030093009B06B070470193C5
:10276800204B22481A6B42F002021A631B6B03F0DB
:1027780002030193019BF0E702931A4B1C481A6B62
:1027880042F004021A631B6B03F004030293029BDA
:10279800E3E70393134B17481A6B42F008021A63D6
:1027A8001B6B03F008030393039BD6E704930D4BBD
:1027B80011481A6B42F010021A631B6B03F01003E6
:1027C8000493049BC9E70593064B0C481A6B42F027
:1027D80080021A631B6B03F080030593059BBCE71B
:1027E8000020BAE70038024000000240000402401E
:1027F80000080240000C024000100240001C024089
:10280800FDF714BE704708B5FDF704FEFDF7B3FEEB
:10281800FFF7F8FF08BD704784B0114B0022019202
:10282800196C41F080511964196C01F080510191C3
:1028380001990292596C41F480415964596C01F430
:1028480080410291029903921A6B42F480521A63F2
:102858001B6B03F480530393039B04B0704700BFC2
:10286800003802400C4BD3F8FC20D2015EBFD3F8ED
:10287800FC2042F08072C3F8FC20084B00225A600A
:102888001A6842F001021A6000BF00BF00BF586812
:10289800B0FA80F04009704700ED00E0001000E059
:1028A80008B5FFF7B9FFFFF7DDFFFDF799FDFFF763
:1028B800B2FF00F039FA0348FDF762FEBDE80840B0
:1028C80000F0B7BA0C00002030B591FAA1F391FAE4
:1028D800A1F1B3FA83F3C4685B000325B1FA81F16F
:1028E80005FA03F3490024EA03038A401343C3604B
:1028F80030BD0000F8B5471C06460D4600D1FEE77E
:1029080000F00F023D4BC0F3031053F82240FFF7CD
:102918000FFF94FAA4F2B2FA82F2836803275200F6
:1029280007FA02F223EA020794FAA4F3B3FA83F34C
:10293800590003238B403B4305F007028360032AB9
:1029480003D8DFE802F01D1D031DFEE73607C5F3B7
:1029580006213ED5230A93FAA3F6B6FA86F6476A05
:1029680093FAA3F3B6004FF00F0CB3FA83F30CFA03
:1029780006F69B0027EA060601FA03F3334343628F
:1029880094FAA4F1B1FA81F103684900032606FA22
:1029980001F123EA010194FAA4F3B3FA83F35B008B
:1029A80002FA03F3013A0B43012A036005D843688E
:1029B8002A074CBF2343A3434360C5F30112012AEE
:1029C80002D0022A18BF00222146BDE8F840FFF7CE
:1029D8007BBF94FAA4F6B6FA86F6036AB6000F2708
:1029E80007FA06F623EA060694FAA4F3B3FA83F381
:1029F8009B0001FA03F333430362C1E7A44F0008C5
:102A08004B6813B94FF0FF307047834201D1086813
:102A180070470C31F4E708B1FFF7F2BF4FF0FF3011
:102A2800704700001049D1F8883043F47003C1F8AA
:102A380088300E4B1A6842F001021A6000229A6030
:102A48001A6822F0847222F480321A60084A5A60A6
:102A58001A6822F480221A604FF43F02DA604FF0BD
:102A680000638B60704700BF00ED00E00038024053
:102A7800103000240438704708B5074B90F86120DF
:102A880053F82200FFF796F800F02200A0F1220385
:102A98005842584108BD00BF4402002008B5074B02
:102AA80090F8612053F82200FFF784F800F0210025
:102AB800A0F121035842584108BD00BF440200203C
:102AC80038B515460446B8B1C16490F96000FDF701
:102AD80019FDA36EB4F8721094F8610013FA81F12D
:102AE800064BAAB253F82000FEF766FE94F9600080
:102AF800BDE83840FDF7F8BC38BD00BF44020020EF
:102B080048B1436D013306D190F86120024B53F868
:102B18002200FFF71FB870474402002048B1436DF8
:102B2800013306D190F86120024B53F82200FFF7D9
:102B380029B8704744020020436C04381847836C56
:102B4800043818471FB503680446186810F00100D8
:102B580013D0002200921A6800925B680093009BD1
:102B6800201FFFF789FF40BB012204F15E012046C8
:102B780004B0BDE81040FFF73EB8196811F0020133
:102B880006D001901A6801925B680193019BE7E700
:102B98001A6812F0040206D002911A6802925B6861
:102BA8000293029BDCE719680907D9D503921A68D2
:102BB80003925B680393039BD2E704B010BD000047
:102BC80008B52520FDF7C6FC024B1868BDE808408B
:102BD800FEF770BE4402002008B52620FDF7BAFCB7
:102BE800034B586818B1BDE80840FEF763BE08BD3E
:102BF8004402002008B54720FDF7ACFC024B98685A
:102C0800BDE80840FEF756BE440200200023012814
:102C180003F1010202D040081346F8E71421DBB2A1
:102C28004B43044A181D1044816811B113441B69B1
:102C380018477047500200200120FDF707BD022009
:102C4800FDF704BD0420FDF701BD0820FDF7FEBC1B
:102C58001020FDF7FBBC38B505242025A8B2FDF7E8
:102C6800F5FC013C4FEA4505F8D138BD38B50624D6
:102C78004FF48065A8B2FDF7E9FC013C4FEA450531
:102C8800F8D138BD204B07211975082183F8281081
:102C9800092183F83C100A21062283F850101721D5
:102CA8001A7083F86410002283F8781083F88C1067
:102CB80083F8A01083F8B4102821DA601A625A63E6
:102CC8009A64DA651A67C3F88420C3F89820C3F8B1
:102CD800AC20C3F8C02083F8C810C3F8D42083F808
:102CE800DC10C3F8E82083F8F010C3F8FC2083F860
:102CF8000411C3F8102183F81811C3F8242183F8AC
:102D08002C11C3F8382170475002002038B5054C03
:102D1800A4F5A075143C201DFDF7A0FAAC42F9D12A
:102D280038BD00BF9003002010B594B014220021D4
:102D380009A801F069FE1422002103A801F064FE2D
:102D480000231E4A0193116C41F080511164126CEA
:102D580002F080520192019A194A0293116841F4D3
:102D6800404111601268022402F440420E20CDE96D
:102D78000E4302924FF4A873CDE91003029A089407
:102D8800012110224FF0040C082308A8CDE90B12EA
:102D9800CDE912C3FEF7BCF900B1FEE70F23CDE978
:102DA80003344FF48053CDE906300590032103A87E
:102DB800FEF78CFB00B1FEE714B010BD00380240EE
:102DC80000700040DFF834D00D480E490E4A002349
:102DD80002E0D458C4500433C4188C42F9D30B4AC7
:102DE8000B4C002301E013600432A242FBD3FFF72F
:102DF80019FE01F0C7FD00F03DF870470000022001
:102E080000000020040200201853000804020020DB
:102E180010110020FEE708B54FF0A040FFF710FCA6
:102E28000A2000F011F8BDE808404FF0A040FFF775
:102E3800F9BB00F08DB808B5FFF7EEFCBDE8084017
:102E4800FFF772BFFFF7DCBC38B5044648B1FFF79F
:102E5800D7FC054600F01AF8FFF7D2FC431BA34243
:102E6800F8D338BD08B50320FDF7FAFABDE80840E5
:102E780000F00AB808B5AFF30080FDF7C3F9FDF715
:102E8800C2F900F0D3FEFAE7FFF70ABD7047002049
:102E98007047000021280ED022281DD0202808D1F4
:102EA800184B0A681A600A791A714A795A718A792C
:102EB8009A7100207047134B1A680A701A68120A30
:102EC8004A705A888A70DA78CA701A790A715A79F7
:102ED8004A719B798B71ECE70B4A4B8812780B4946
:102EE800002A14BF1A46012202F001020A700A7869
:102EF80012B1074A00211160064AC3F34003137058
:102F0800D7E700BF3000002018000020DE040020B2
:102F1800B4070020B007002008B5094800F0ACFE4F
:102F2800084800F018FF084B064801221A7000F004
:102F38001BFF0146054801F01CFA002008BD00BF30
:102F4800580400209203002038000020E0040020EC
:102F580010B50C4C22789AB90B490C4800F0A0F82F
:102F680070B90B49094800F0AEF848B90949074853
:102F780001F0EDF920B9054800F0BBF801232370F2
:102F880010BD00BF9003002050000020E004002086
:102F9800900000201C0000200A4B10B51C6814B1DA
:102FA800FDF744FA041B084B93F89C32032B07D116
:102FB800022C05D8054B1878C0B200F0010010BDEE
:102FC8000020FAE7B4070020E0040020DE04002017
:102FD8001FB50F4CD4F8BC32D3F81432ABB90D4836
:102FE8000DF10E0100F092FEBDF80E306BB10190AC
:102FF800FDF71CFA084BBDF80E2018600199204611
:1030080001F0ACF9204601F0BDF904B010BD00BFD5
:10301800E004002058040020B407002010B5054B38
:10302800054800241C6000F08CFEFFF7D1FF204605
:1030380010BD00BFB40700205804002038B50A4D61
:103048002B780BB1002038BD084800F08DFE0146F2
:103058000028F7D0012406482C7001F08AF90448AA
:1030680001F0A8F92046EEE738000020920300207E
:10307800E004002008B50988064800F0AEFE064BBB
:1030880000221A70FFF7DAFF10B9044801F0A9F915
:10309800002008BD9203002038000020E004002032
:1030A80078B10023C0F8B832C0F8C032C0F8CC32CA
:1030B80009B1C0F8B412012380F89C32027000F004
:1030C800ABBC0320704737B500250446ADF8065061
:1030D80059B1CB6AC0F8B8124BB10DF10600984748
:1030E800C4F8CC02284603B030BD0320FBE71846DD
:1030F800F9E700F0C9BCD0F8B8320BB11B68184723
:103108000320704708B5D0F8B8320BB15B68984710
:10311800002008BD38B5044600F2AA25284600F06C
:103128002FFB012394F8AA12C4F89432B4F8B032F1
:10313800C4F8983201F01F03012B08D0022B0CD0E1
:103148008BB929462046BDE8384000F021B9294608
:103158002046BDE8384000F05DBA29462046BDE863
:10316800384000F07DBA204601F08001BDE83840C3
:1031780000F0A2BC70B504461546F9B9D0F89432EF
:10318800032B0CD1D0E9573293420AD99B1A9A42A1
:10319800C0F85C3128BF1A46294600F045FB0020DC
:1031A80070BD90F89C32032B04D1D0F8B8321B695B
:1031B80003B19847204600F03FFBF0E790F89C32B7
:1031C800032BECD1D0F8B8329B69002BE7D0BDE8CF
:1031D8007040184773B50446164600293BD1D0F80D
:1031E8009422022A0FD1D0E90752954215D9AA1A7A
:1031F8000191C261314600F002FB019B1A46194653
:10320800204600F088FC94F8A032012B02D100235C
:1032180084F8A032002002B070BD0ED182699542B8
:103228000BD8D0F89852AA4207D20A46019100F06A
:10323800E6FA019BC4F89832E0E794F89C32032B35
:1032480005D1D4F8B832DB680BB120469847204640
:1032580000F0FDFAD7E790F89C32032BDAD1D0F8CA
:10326800B8325B69002BD5D002B0BDE87040184772
:10327800012370B580F89C32D0F8B832002104469A
:10328800C0F894124160C0F8A412DBB1D0F8BC2297
:1032980012B15B6803B198470022114640254023CC
:1032A8000126204600F0F7FBA4F86461C4F86051D9
:1032B8002B4600228021204600F0EDFBA6842562E3
:1032C800002070BD0320FCE701740020704790F8CF
:1032D8009C32DBB280F89D32042380F89C320020B7
:1032E800704790F89C32042B02BF90F89D32DBB2F5
:1032F80080F89C3200207047D0F8B82208B542B157
:1033080090F89C32032B02D1D36923B1984700204F
:1033180000E0032008BD1846FCE7D0F8B82208B53D
:1033280042B190F89C32032B02D1136A23B198471B
:10333800002000E0032008BD1846FCE7D0F8B822BA
:1033480008B542B190F89C32032B02D1536A23B1DD
:103358009847002000E0032008BD1846FCE700203D
:103368007047012208B580F89C22D0F8B82212B123
:10337800526801799047002008BD10B580210446A5
:1033880000F09AFB20460021BDE8104000F094BBF5
:10339800F7B50D7805F06005202D04460E4614D0CB
:1033A800402D12D0002D40F0FE804F78092F00F2FA
:1033B800FA80DFE817F0FF002101F8001701F80094
:1033C80080001300F800E7009C00D4F8B8329B682E
:1033D8003146204603B0BDE8F0401847498800232D
:1033E800ADF806300B0A013B062B37D8DFE803F0AF
:1033F800041C2936364E5800D0F8B4321B68207C9D
:103408000DF106019847F288002A00F0F180BDF816
:1034180006301BB39A4228BF1A46ADF8062001466B
:10342800204600F0DFF91CE0027CD0F8B83232B94F
:103438009B6A0DF10600984702234370E3E7DB6AB5
:10344800F7E7C9B2D0F8B432052917D8DFE801F098
:10345800030C0E1012145B68002BD0D12046FFF726
:103468008CFF284603B0F0BD9B68F5E7DB68F3E7FF
:103478001B69F1E75B69EFE79B69EDE7DB69002B07
:10348800ECD00DF10602007C9847BCE7037C002BCA
:10349800E4D1D0F8B8320DF106005B6B9847B2E77B
:1034A800037C002BDAD1D0F8B8320DF106001B6B83
:1034B80098470723C1E78B88002BCFD1CB88002BF7
:1034C800CCD14E887F2EC9D890F89C32032BC5D01A
:1034D800F1B280F89E1200F010FB204600F0ACF923
:1034E8001EB1022384F89C32BBE70123FAE78E78E9
:1034F800474F012E3E7003D9FFF73FFF0325B0E782
:1035080090F89C32022BDAB208D0032A14D0FFF7C5
:1035180034FF39782046FFF7F5FDEFE7002E67D036
:1035280001214160FFF7E7FD05462046002D96D1B1
:1035380000F082F90323D5E75EB9022380F89C32B4
:1035480046603146FFF7DEFD204600F075F9354646
:1035580087E7416801294BD0C9B2FFF7D3FD397815
:1035680061602046FFF7C7FD0646002840D0204688
:10357800FFF703FF21792046FFF7C4FD022384F8F3
:103588009C32E4E7CA88012A7FF468AF90F89C125D
:103598000229CBB205D833B10146002341F8083FD0
:1035A8003EE7032B04D02046FFF7E7FE002558E747
:1035B800011D35E790F89C32013B022BF3D8CB88EC
:1035C800022B7FF44BAF0123C360D0F8A4320BB1B8
:1035D8000323C360022204F10C01204600F002F923
:1035E8003D463EE74B88012B7FF43BAFC4F8A4323D
:1035F800204600F021F934E790F89C32013B022B79
:10360800D1D84B88012B7FF42CAF0023EEE700BF05
:10361800B807002070B50B7803F06002402A044612
:103628000E4601D05B0616D494F89C32013B022B5F
:1036380011D83379022B0ED8D4F8B83231469B68AA
:1036480020469847F38805461BB910B9204600F074
:10365800F3F8284670BD2046FFF78FFE0025F8E7EF
:1036680070B50B7803F06003202B04460D4653D049
:10367800402B51D073BB6B788A880979012B3AD0DB
:10368800032B20D033BB90F89C32022BD8B254D0F5
:1036980003281FD101F00F0312F0800F4FF014021E
:1036A80002FB034358D09B8CA3B101F07F05013581
:1036B80005EB850504EB850511F07F0358D12B60D8
:1036C8000222294644E090F89C32022BDAB22BD031
:1036D800032A03D02046FFF750FE0AE06B882BB977
:1036E8004A0603D0EB880BB900F0E6F9204600F053
:1036F800A3F8002070BD90F89C32022BDAB213D0E8
:10370800032AE7D16B88002BF3D14E0601D000F0D5
:10371800DAF9204600F090F8D4F8B8322946204665
:103728009B68BDE8704018474B06D3D000F0C4F939
:103738008021204600F0C0F9DBE74906CAD113060C
:103748004CBF04F1140104F5AA7100230B60022296
:10375800204600F047F8CCE7B3F86431002BB9D025
:1037680001F07F05142303FB054505F5AA75A3E7BA
:10377800204600F0AFF908B10123A0E728609FE7D1
:103788000B7803704B7843704B8843808B88838019
:10379800CB88C380704710B58021044600F08CF9AF
:1037A80020460021BDE8104000F086B930B588B148
:1037B8000024013823460134055D002DFAD1DBB21F
:1037C80001335B0013800B7003234B70022310F846
:1037D800012F02B930BDCA545A1CD2B202338D54DB
:1037E800DBB2F4E710B502241346C0E90622C0F89C
:1037F80094420A46002100F087F9002010BD08B560
:1038080013460A46002100F07FF9002008BD10B5D4
:1038180003241346C0E95622C0F894420A46002100
:1038280000F079F9002010BD08B513460A460021BA
:1038380000F071F9002008BD08B504220023C0F883
:10384800942219461A4600F05FF9002008BD08B511
:1038580005220023C0F8942219461A4600F05BF9A5
:10386800002008BD0368B3F1A04F37B504463DD129
:103878001F4D03E0A968FFF73DF80C352868431C85
:10388800F8D11C4B5A6B42F080025A630022019215
:10389800596C41F4804159645B6C03F48043012105
:1038A80001934320019BFCF7EDFD4320FCF71CFE30
:1038B800216A01294FF0000218D10F4B4FF48020E4
:1038C8005861D86820F48020D860986840F4802037
:1038D8009860186840F4802018602A20FCF7D2FD10
:1038E8002A2003B0BDE83040FCF7FEBD03B030BD70
:1038F8008450000800380240003C014000F2C441F6
:10390800D0F80805FFF706BC242303FB0103D0F811
:103918000805D3F88C22FFF72DBC242303FB0103F1
:10392800D0F80805DA6CFFF755BCD0F80805FFF7A2
:10393800E3BC10B50446D0F80805FFF799FCD4F8A5
:1039480008050121BDE81040FFF7BEBC10B50446CC
:10395800D0F80805FFF7BBFC2268D2F8003E43F018
:103968000103C2F8003E236A23B1034A136943F0F6
:103978000603136110BD00BF00ED00E0036A10B537
:10398800044633B1FFF757FA084A136923F00603D0
:1039980013612268D4F80805D2F8003E23F0010329
:1039A800BDE81040C2F8003EFFF79BBC00ED00E008
:1039B800D0F80805FFF7C2BCD0F80805FFF7ADBC82
:1039C800D0F80805FFF7CBBCD0F80805FFF7C9BC4D
:1039D8000148FDF731B800BFBC07002010B50B4CFB
:1039E800236A6BB10A4A136923F006031361FFF7D0
:1039F80022FA2268D2F8003E23F00103C2F8003E02
:103A0800044B4FF480225A6110BD00BFBC07002050
:103A180000ED00E0003C014070B5194C0546FFF789
:103A2800FAF9042363600023C4E90933C4E90733BE
:103A380063614FF0A04223632361E3626363C4F8C8
:103A480008550223C5F8C44220462260A361E360FA
:103A5800FCF708FE00B1FEE70A4D2046A988FDF7ED
:103A680051FB0126AA8955F8081F204601F00F01CD
:103A78000136FDF727FB052EF4D1002070BD00BFED
:103A8800BC0700201452000808B5D0F8C402FCF79F
:103A98006EFE002008BD10B51446D0F8C4021A46C0
:103AA8002346FCF797FE002010BD08B5D0F8C402E5
:103AB800FCF7C8FE002008BD08B5D0F8C402FCF722
:103AC8003CFF002008BD08B5D0F8C402FCF76DFF24
:103AD800002008BD11F0800FD0F8C4324FF0240246
:103AE8001BBF01F07F0102FB013102FB013191F89C
:103AF8003E0008BF91F87E02704708B5D0F8C402AE
:103B0800FCF754FE002008BD08B5D0F8C402FCF745
:103B1800F4FE002008BD08B5D0F8C402FCF7C1FEC9
:103B2800002008BDD0F8C402FCF7DFBE122301480C
:103B38000B8070473C000020042301480B8070472D
:103B48007000002000487047C80D0020002370B5A1
:103B58004D1C1E46040FB0F1204F34BF30343734AB
:103B680001F8134005F813600133DCB294424FEAC0
:103B78000010EFD370BD00001A2310B50B800A4B5C
:103B8800D3F8100AD3F8182A80180AD0D3F8144AA0
:103B980006490822FFF7DAFF042210312046FFF712
:103BA800D5FF034810BD00BF0070FF1F760000203E
:103BB8007400002010B5044C04480A462146FFF75B
:103BC800F5FD204610BD00BFC80C00208451000838
:103BD8000A4608B5044920B90448FFF7E7FD02483A
:103BE80008BD0348F9E700BFC80C0020975100083A
:103BF800B751000810B5044C04480A462146FFF79F
:103C0800D5FD204610BD00BFC80C0020D7510008C4
:103C180010B5044C04480A462146FFF7C7FD204664
:103C280010BD00BFC80C0020F351000808B50C4BAC
:103C38002BB10C4800F0E2FB08B1AFF300800A4B4F
:103C48002BB10A4800F0DAFB08B1AFF30080084B4B
:103C58002BB1084800F00CFE08B1AFF3008008BD96
:103C680000000000C80E002000000000DC0F00204B
:103C780000000000F01000200023A0F88230A0F817
:103C880080307047B0F88230B0F880009BB280B2C4
:103C9800181A7F30434203F07F0300F07F0058BFBB
:103CA80058427047B0F88030B0F882009BB282B2B8
:103CB80003F18000801A434203F07F0300F07F0085
:103CC80058BF58427047F8B5B0F88050ADB2C5F14A
:103CD8008005954204460F46B0F8800016460CD978
:103CE80014FA80F000F082FEB4F8803016FA83F2FD
:103CF80002F07F02A4F88020F8BD2A4614FA80F06A
:103D080000F074FE721B79192046EBE7B0F88020AA
:103D1800B0F8823092B29BB29A422BBFB0F8803092
:103D2800B0F88230B0F88220C3F1800328BF9B1A14
:103D38009BB20B80A0F88430B0F8823010FA83F080
:103D48007047B0F88220B0F88430134403F07F0342
:103D5800A0F8823070470023A0F8C230A0F8C03025
:103D6800C023A0F8C4307047B0F8C23082B09BB20C
:103D7800ADF80630B0F8C020BDF8063092B29BB25C
:103D88009A42B0F8C0309BB21FD37F2B08D9B0F845
:103D9800C0309BB2802B09D1BDF806309BB22BB145
:103DA800B0F8C03010FA83F002B07047BDF80630A2
:103DB8009BB2402B4FF000030DD9B0F8C02092B24F
:103DC800A0F8C420A0F8C030EAE7BDF806204033C8
:103DD80092B29342E4D30020E6E7B0F8C03011FA7B
:103DE80083F189B2A0F8C010B0F8C020B0F8C43090
:103DF80092B29BB29A4224BFC023A0F8C430B0F854
:103E0800C0309BB2BF2B84BF0023A0F8C0307047DE
:103E1800B0F8C03082B09BB2ADF80430B0F8C4300E
:103E28009BB2ADF80630B0F8C220BDF8043092B2AB
:103E38009BB29A4208D8BDF80430B0F8C2009BB2D1
:103E480080B2181A02B07047BDF80630BDF80410E9
:103E5800B0F8C22089B292B211FA83F0801AF1E761
:103E6800B0F8C03082B09BB2ADF80430B0F8C430BE
:103E78009BB2ADF80630B0F8C220BDF8063092B259
:103E88009BB29A4204BF0023A0F8C230B0F8C22007
:103E9800BDF8043092B29BB29A4215D0B0F8C23045
:103EA8009BB25A1C92B2A0F8C220B0F8C210BDF85A
:103EB8000620C35C92B289B2914224BF0022A0F8C6
:103EC800C220184602B070474FF0FF30FAE7B0F84A
:103ED800C03082B09BB2ADF80430B0F8C4309BB2A9
:103EE800ADF80630B0F8C220BDF8063092B29BB2E9
:103EF8009A4224BF0023A0F8C230B0F8C220BDF80F
:103F0800043092B29BB29A421BBFB0F8C2309BB247
:103F18004FF0FF30C05C02B0704737B50446084622
:103F2800B4F8C0309BB2ADF80430B4F8C4309BB2DA
:103F3800ADF80630B4F8C210BDF8063089B29BB2AD
:103F4800994224BF0023A4F8C230B4F8C210BDF8C7
:103F5800043089B29BB2994294BFBDF80430BDF8D1
:103F68000630B4F8C250B4F8C2105B1B9DB295423B
:103F780028BF15462A4614FA81F100F037FDB4F837
:103F8800C23015FA83F39BB2A4F8C230B4F8C22049
:103F9800BDF8063092B29BB29A4228BF0023284649
:103FA80028BFA4F8C23003B030BDF7B5B0F8C040A0
:103FB800089DA4B2ADF80440B0F8C440A4B2ADF86E
:103FC8000640B0F8C260BDF80640B6B2A4B2A64238
:103FD80024BF0024A0F8C240B0F8C260BDF8044075
:103FE800B6B2A4B2A64294BFBDF80440BDF80640DC
:103FF800B0F8C260B0F8C270A41BA4B2A34228BF34
:10400800234610FA87F70024A6B2B34215D82B80AE
:10401800B0F8C22013FA82F39BB2A0F8C230B0F80D
:10402800C220BDF8063092B29BB29A424FF000030C
:1040380028BFA0F8C230184618E017F804C08C450D
:1040480016D1B0F8C2309BB2013333449BB2A0F80A
:10405800C230B0F8C220BDF8063092B29BB29A4284
:1040680024BF0023A0F8C2302E80012003B0F0BD89
:1040780002F804C00134C7E710B5D0F8BC4284B1D7
:10408800D0F8C0325BB194F80002FF2807D09B68D3
:1040980094F8012221469847FF2384F80032002033
:1040A80000E0032010BD0000432303800048704750
:1040B800C800002043230380004870470C010020FB
:1040C80043230380004870475C0100200A230380D3
:1040D800004870475001002038B5D0F8BC4205466A
:1040E8006CB1FFF71FFDD5F8C032C4F80C02DB68CD
:1040F800D4F8040204F503719847002038BD032062
:10410800FCE7F8B5D0F8BC6205460A4636B3142376
:1041180003FB01039C6994B1D0F8C4724FF0240CDE
:104128000CFB0177BF6CB4FBF7FC07FB1C4434B9EC
:104138009C6122462346FFF7E7FC20460DE0D5F8B0
:10414800C0321C690027C6F81472002CF5D0D6F8C6
:10415800080206F50471A0473846F8BD0320FCE7BD
:104168002DE9F743D0F8BC724FF0000805460E461B
:104178008DF80580ADF80680002F6ED00A7812F011
:1041880060042ED0202C64D1CC884B7814B312064E
:1041980014D5D0F8C0223946D2F8089018462246DD
:1041A800C847F288072A28BF072239462846FFF75A
:1041B80019FB4446204603B0BDE8F083402C28BFD5
:1041C800402487F8003287F8014222463946FFF733
:1041D8001EFBEEE7D0F8C022184695682246A8478D
:1041E800E8E74F780B2F34D801A353F827F000BF26
:1041F80029420008BD4100085B4200085B420008F4
:104208005B4200085B4200085B4200085B42000812
:104218005B4200085B4200083F4200085342000826
:1042280090F89C32032B14D102220DF10601FFF7FE
:10423800D9FA3C46BEE790F89C32032B09D10122FB
:104248000DF10501FFF7CEFAB4E790F89C32032B85
:10425800B0D031462846FFF79EFA0324AAE700BFEC
:1042680038B5044600258221FFF71FFC0121A4F878
:104278004C502046FFF719FCA4F8785183212046BA
:10428800FFF713FCD4F8BC3225664BB1D4F8C03222
:104298005B689847D4F8BC0200F0A0FBC4F8BC5295
:1042A800002038BDF8B504464FF4077000F08EFBC7
:1042B8000546C4F8BC0210B902263046F8BD237C76
:1042C80093BB4FF400730222822120460126FFF798
:1042D800E2FBA4F84C604FF40073314602222046FA
:1042E800FFF7D9FB1023A4F87861A4F86230032201
:1042F800082383212046FFF7CEFBD4F8C0320121E2
:10430800A4F860101B689847267C0027C5F814722B
:104318000121C5F8187296B9D5F804224FF4007334
:104328002046FFF7F8FBC8E74023022282212046F7
:104338000126FFF7B0FBA4F84C604023CDE7D5F881
:10434800042240232046FFF7E6FB3E46B5E719B1B5
:10435800C0F8C0120020704703207047D0F8BC3264
:104368002BB1C3F80812C3F81022002070470320AD
:104378007047D0F8BC321BB1C3F804120020704754
:1043880003207047D0F8BC2210B57AB1D2F8144295
:1043980001236CB9C2F81432D2F810320364D2F88F
:1043A80008228221FFF7B0FB204610BD0320FCE75E
:1043B8001846FAE7D0F8BC2210B582B1047CD2F8CE
:1043C800042234B94FF400730121FFF7A4FB2046FF
:1043D80010BD40230121FFF79EFB0024F7E70324CB
:1043E800F5E708B5D0F8BC3233B100231A460121ED
:1043F800FFF791FB002008BD0320FCE7B0F804316B
:10440800B0F80001181A00F03F007047B0F8043106
:10441800B0F800219BB293421ABFD0F8F830985CEC
:104428004FF0FF30704790F80231B0F80601C0B283
:10443800834227BFC3F13F03C018C01A00F1FF3001
:10444800704707B503688DF807105B6801220DF106
:104458000701984703B05DF804FB000038B5426FC8
:10446800B0F8723012FA83F303F03F03A0F8723009
:10447800B0F87220B0F86E3092B293421BD0B0F808
:104488007220B0F872400D4995B203F14002521BF8
:10449800534203F03F03A4B202F03F0258BF5A420E
:1044A800C4F140039A4228BF1A464267FEF708FB48
:1044B8004FF0FF3038BD0020FCE700BF654400081E
:1044C80003682DE9F0479B680446884616469847D6
:1044D80001232374D4F8E830B4F8029101338246FA
:1044E800C9F1400904F1940708D194F80C312BB1B3
:1044F800002384F80C313846FEF702FB2368204677
:104508009B6898470028F9D035464D4501D8554550
:1045180015D9D145236828BFD1464A4641465B682C
:1045280020469847236820469B689847B4F802219C
:10453800A5EB0905C8448246C2F14009E5E7B4F88D
:104548000221D4F8FC005319402B104419D82A46EC
:10455800414600F04BFAA946B4F802311D4405F073
:104568003F05A4F802513846FEF798FA30B90C49CD
:10457800C4F808914A463846FEF7A2FA3046BDE824
:10458800F087C2F140094A46414600F02FFAD4F8B4
:10459800FC00A5EB090208EB090100F027FADBE7AC
:1045A80065440008037C33B1B0F80221B0F8063145
:1045B8009BB29A42FAD17047C0F8EC30009BC0F821
:1045C800F030914208BF4FF0FF3100F11103C0E90C
:1045D8003921C0F8F83000F151020023A0F8043165
:1045E800C0E93F23A0F8063170470000CBB2232B67
:1045F80008D80E4A52F8233001F4E0611943C0F894
:10460800E810704701F0C002C02A0CD1C92B0AD8A3
:10461800074B01F03F0201F4E06153F82220034BFD
:1046280053F82230EAE74FF0FF31E8E7F45000088A
:10463800CC500008CBB2232B08D80E4A52F82330AE
:1046480001F4E0611943C0F8E410704701F0C002BA
:10465800C02A0CD1C92B0AD8074B01F03F0201F43C
:10466800E06153F82220034B53F82230EAE74FF079
:10467800FF31E8E7F4500008CC50000873B54FF458
:104688007A7316460022C0E90123174B03604FF0E6
:10469800FF33C0F8E830154B984204460D4615D153
:1046A800C321FFF7A3FFC221FFF7C4FF012E4FF07C
:1046B800FF3308BFC4F8E83000932046D4E9392115
:1046C8004FF0FF33FFF778FF02B070BD0849284666
:1046D800FEF7A1F90749C4F8E8002846FEF79BF958
:1046E800C4F8E400E2E700BF44520008F0100020DC
:1046F800F44F00083C500008D0F8E830013310B5FA
:1047080004460ED10368DB68984794F80C3143B926
:10471800012384F80C3104F19400BDE81040FEF741
:10472800FDB910BD10B50446FFF7E6FFB4F8042143
:10473800B4F8003192B29A421FBFD4F8F820D05C86
:10474800013303F03F0314BFA4F800314FF0FF30EA
:1047580010BD000008B5064906480022FFF78EFF85
:10476800BDE80840044905480022FFF787BF00BF9D
:1047780000100140C80E002000440040DC0F00205B
:1047880010B50446FEF75EFBE060236820465B69CF
:104798009847002808DAFEF755FBE368C01AA368B3
:1047A8009842F2D34FF0FF3010BD2DE9F041074693
:1047B8000C468E180D46B542A5EB040807D03846BE
:1047C800FFF7DEFF031E02DB05F8013BF3E7404677
:1047D800BDE8F0812DE9F0410746884616461D469A
:1047E80073B100243846FFF7CBFF031E05DB4345B2
:1047F80003D033550134A542F4D12046BDE8F081F9
:104808001C46FAE707B503688DF807105B680122B4
:104818000DF10701984703B05DF804FB0148FFF765
:1048280031BA00BF580400202DE9F041DFF83C8080
:104838000E4614461746AFB1FEF7AEFB90B14046A0
:10484800FFF720FAB84228BF384605460028F2D0BC
:10485800024631464046FFF736FA7F1B2E44FEF7E4
:10486800B7FBE8E7E01BBDE8F08100BF5804002073
:104878000148FFF7CDBA00BF9203002010B50448E5
:10488800FFF7EEFA0446FEF7D9FB204610BD00BF3D
:10489800920300202DE9F84306460F46154694B2C8
:1048A800FEF7D0FADFF83490F060224639464846E1
:1048B800FFF733FB8046A4EB0804A4B2FEF7BEFB67
:1048C80047443CB1FEF7BEFAF368C01AB368984291
:1048D800EBD32D1B2846BDE8F88300BF92030020C8
:1048E8002DE9F04F85B00646884617461C469DB20E
:1048F800FEF7A8FADFF84CA0F0600DF10E092B4680
:104908003A464146CDF800905046FFF74EFB8346A5
:10491800FEF794FBBDF80E30ED1AADB21F44BBF1A3
:10492800000F04D0641B204605B0BDE8F08F002DB1
:10493800F9D0FEF787FAF368C01AB3689842DED355
:10494800F0E700BF920300200148FFF7C0BA00BF9C
:104958009203002010B5034C2046FFF7A3F9002866
:10496800FADC10BD58040020044B4FF47A72002181
:10497800C3E90112024A1A60704700BFF010002014
:104988007052000870B50D4D0D4C641BA410002624
:10499800A64209D10B4D0C4C00F0F4FA641BA4108C
:1049A8000026A64205D170BD55F8043B984701364C
:1049B800EEE755F8043B98470136F2E7FC52000849
:1049C800FC520008FC52000810530008024B014634
:1049D800186800F08DB800BFA0010020024B014606
:1049E800186800F019B800BFA00100200A449142DD
:1049F80000F1FF3300D1704710B511F8014B03F8EF
:104A0800014F9142F9D110BD02440346934200D1AF
:104A1800704703F8011BF9E737B5002944D051F86E
:104A2800043C0190002BA1F10404B8BFE41800F085
:104A3800E5F81E4A0198136833B96360146003B03F
:104A4800BDE8304000F0E0B8A34208D925686119F4
:104A58008B4201BF19685B6849192160EDE71A4666
:104A68005B680BB1A342FAD911685518A5420BD15E
:104A7800246821445418A3421160E0D11C685B6883
:104A8800536021441160DAE702D90C230360D6E7AA
:104A9800256861198B4204BF19685B68636004BFAD
:104AA800491921605460CAE703B030BD00110020E5
:104AB80070B50E4E0C463168054611B900F08CF8F9
:104AC80030602146284600F087F8431C0AD0C41CF1
:104AD80024F00304A04207D0211A284600F07CF8ED
:104AE800013001D14FF0FF34204670BD0411002081
:104AF8002DE9F041CD1C25F0030508350C2D38BFF4
:104B08000C25002D074601DBA94205D90C233B6083
:104B180000263046BDE8F0812E4E00F06FF833686D
:104B28001C4634BB29463846FFF7C2FF431C0446DF
:104B38004DD134682646002E40D123683146384688
:104B480004EB030800F048F880453AD121680335A2
:104B58006D1A25F0030508350C2D38BF0C2529469C
:104B68003846FFF7A5FF01302BD023682B4423607C
:104B78000EE02268521B1ED40B2A16D96119A342D3
:104B8800256018BF5960636808BF316062514B6087
:104B9800384604F10B0600F037F826F00706231D07
:104BA800F21AB6D09B1BA350B3E76268A3420CBFAE
:104BB80032605A60ECE723466468B2E734467668A8
:104BC800B9E70C233B60384600F01EF8A1E72560E2
:104BD800DEE700BF0011002038B5064D002304466B
:104BE80008462B60FBF710FB431C02D12B6803B16E
:104BF800236038BD08110020704770470148FFF74F
:104C0800FBBF00BF0C1100200148FFF7F6BF00BF33
:104C18000C11002008B5062000F02CF80120FBF745
:104C280011FB1F2938B504460D4604D91623036025
:104C38004FF0FF3038BD426C12B152F821304BB9F9
:104C4800204600F031F82A4601462046BDE83840A3
:104C580000F018B8012B0AD0591C03D116230360A1
:104C68000120E7E7002442F825402846984700201D
:104C7800E0E70000024B01461868FFF7D2BF00BF0B
:104C8800A001002038B5074D002304460846114608
:104C98002B60FBF7D9FA431C02D12B6803B12360C0
:104CA80038BD00BF08110020FBF7D6BA2DE9F04740
:104CB800089D04468E46002B4DD18A42944669D9F8
:104CC800B2FA82F252B101FA02F3C2F1200120FADB
:104CD80001F10CFA02FC41EA030E94404FEA1C4829
:104CE800210CBEFBF8F61FFA8CF708FB16E341EA25
:104CF800034306FB07F199420AD91CEB030306F1AB
:104D0800FF3080F01F81994240F21C81023E6344CB
:104D18005B1AA4B2B3FBF8F008FB103344EA03446F
:104D280000FB07F7A7420AD91CEB040400F1FF3384
:104D380080F00A81A74240F207816444023840EAC1
:104D48000640E41B00261DB1D4400023C5E90043FA
:104D58003146BDE8F0878B4209D9002D00F0EF807D
:104D68000026C5E9000130463146BDE8F087B3FAB0
:104D780083F6002E4AD18B4202D3824200F2F98098
:104D8800841A61EB030301209E46002DE0D0C5E99B
:104D9800004EDDE702B9FFDEB2FA82F2002A40F0E7
:104DA8009280A1EB0C014FEA1C471FFA8CFE0126EA
:104DB800200CB1FBF7F307FB131140EA01410EFB8E
:104DC80003F0884208D91CEB010103F1FF3802D235
:104DD800884200F2CB804346091AA4B2B1FBF7F02F
:104DE80007FB101144EA01440EFB00FEA64508D952
:104DF8001CEB040400F1FF3102D2A64500F2BB808F
:104E08000846A4EB0E0440EA03409CE7C6F12007DD
:104E1800B34022FA07FC4CEA030C20FA07F401FA23
:104E280006F31C43F9404FEA1C4900FA06F3B1FBAC
:104E3800F9F8200C1FFA8CFE09FB181140EA014111
:104E480008FB0EF0884202FA06F20BD91CEB0101AE
:104E580008F1FF3A80F08880884240F28580A8F106
:104E680002086144091AA4B2B1FBF9F009FB101158
:104E780044EA014100FB0EFE8E4508D91CEB0101F6
:104E880000F1FF346CD28E456AD90238614440EA99
:104E98000840A0FB0294A1EB0E01A142C846A64619
:104EA80056D353D05DB1B3EB080261EB0E0101FAA2
:104EB80007F722FA06F3F1401F43C5E900710026FF
:104EC8003146BDE8F087C2F12003D8400CFA02FC55
:104ED80021FA03F3914001434FEA1C471FFA8CFE65
:104EE800B3FBF7F007FB10360B0C43EA064300FB55
:104EF8000EF69E4204FA02F408D91CEB030300F1F3
:104F0800FF382FD29E422DD9023863449B1B89B2A9
:104F1800B3FBF7F607FB163341EA034106FB0EF332
:104F28008B4208D91CEB010106F1FF3816D28B42DF
:104F380014D9023E6144C91A46EA004638E72E46AB
:104F4800284605E70646E3E61846F8E64B45A9D2A3
:104F5800B9EB020864EB0C0E0138A3E74646EAE712
:104F6800204694E74046D1E7D0467BE7023B6144C0
:104F780032E7304609E76444023842E708B5FFF7EC
:104F880049FE0000F8B500BFF8BC08BC9E46704753
:0C4F9800F8B500BFF8BC08BC9E4670478E
:104FA40001000000020000000400000008000000EE
:104FB40010000000200000004000000080000000FD
:104FC40000010000000200000004000000080000CE
:104FD40000100000002000000040000000800000DD
:104FE4000000000000000000010203040607080995
:104FF4000300000000440040120700000A00000003
:1050040000100140120700000C00000000140140D1
:1050140012080000130000000010014012070000F5
:10502400170000000010014012070000FFFFFFFFFF
:1050340000000000000000000200000000440040E6
:1050440012070000090000000010014012070000D0
:105054000B00000000140140120800000F000000C3
:10506400001001401207000016000000001001406B
:1050740012070000FFFFFFFF000000000000000017
:105084000800000000000050120A0000090000009F
:1050940000000050000A00000A0000000000005058
:1050A4001A0A00000B00000000000050120A000061
:1050B4000C00000000000050120A0000FFFFFFFF78
:1050C40000000000000000000000000001000000DB
:1050D40002000000030000000400000005000000BE
:1050E400060000000700000010000000110000008E
:1050F40000000000010000000200000003000000A6
:105104000400000005000000060000000700000085
:1051140008000000090000000A0000000B00000065
:105124000C0000000D0000000E0000000F00000045
:105134001000000011000000120000001300000025
:105144001400000015000000160000001700000005
:1051540018000000190000001A0000001C000000E4
:105164001D0000001E0000001F0000002D000000B4
:105174002E0000002F00000050000000510000002D
:1051840053544D6963726F656C656374726F6E69B5
:1051940063730047454E455249435F4634313143BA
:1051A4004555582043444320696E204853204D6F91
:1051B40064650047454E455249435F4634313143A7
:1051C4004555582043444320696E204653204D6F73
:1051D40064650047454E455249435F463431314387
:1051E4004555582043444320436F6E666967004722
:1051F400454E455249435F46343131434555582065
:1052040043444320496E746572666163650000001F
:10521400000000004000000080000000400000008A
:105224000100000040000000820000004000000077
:1052340083000000080000000000000000000000DF
:105244004B440008C94400082F440008AD45000839
:10525400054400082D47000815440008B34700081A
:10526400DD47000800000000000000000D480008B1
:1052740031480008254800085D49000879480008BD
:1052840085480008514900089D480008E94800087D
:10529400000000000000000000000000000000000A
:1052A40000000000000000000000000000000000FA
:1052B40000000000000000000000000000000000EA
:1052C40000000000000000000000000000000000DA
:1052D40000000000000000000000000000000000CA
:1052E40000000000000000000000000000000000BA
:0852F400C0F9FF7F010000007A
:1052FC006D2E0008F10100088D2C00085D47000898
:04530C0071490008DB
:08531000CD010008152D000875
:1053180010110020010000001000000000300240C1
:10532800000000000024F40001000000212F000804
:10533800972E00089D2E00087D30000825300008B3
:1053480000C2010000000800010000001201000274
:1053580002020040830440570000010203010000DC
:10536800353B0008413B0008BD3B0008D93B00081D
:10537800813B0008FD3B0008193C00084D3B000834
:10538800040309041A0300000000000000000000E4
:105398000000000000000000000000000000000005
:1053A800AD42000869420008694100080000000099
:1053B800814000080B410008E1400008000000009F
:1053C8000000000000000000BD400008B1400008D7
:1053D800C9400008D540000809024300020100C086
:1053E8003209040000010202000005240010010532
:1053F8002401000104240202052406000107058394
:105408000308001009040100020A00000007050152
:105418000240000007058202400000000902430024
:10542800020100C032090400000102020000052444
:1054380000100105240100010424020205240600CD
:10544800010705830308001009040100020A00008F
:1054580000070501020002000705820200020000A1
:105468000A0600020000004001000000090743008E
:10547800020104C0320904000001020200000524F0
:10548800001001052401000104240202052406007D
:10549800010705830308001009040100020A00003F
:1054A80000070501024000000705820240000000D5
:1054B800A401002000000000B4520008D4520008E3
:1054C80094520008000000000000000000000000E6
:1054D80000000000000000000000000000000000C4
:1054E80000000000000000000000000000000000B4
:1054F80000000000000000000000000000000000A4
:105508000000000000000000000000000000000093
:04551800000000008F
:0400000508002DCDF5
:00000001FF
